:100000000C9434000C9451000C9451000C94510049
:100010000C941E030C9451000C9451000C9451004C
:100020000C9451000C9451000C9451000C9451000C
:100030000C9451000C9451000C9451000C945100FC
:100040000C9451000C9451000C9451000C945100EC
:100050000C9451000C9451000C9451000C945100DC
:100060000C9451000C94510011241FBECFEFD8E026
:10007000DEBFCDBF11E0A0E0B1E0E0E3FAE002C0F6
:1000800005900D92A031B107D9F721E0A0E1B1E0D0
:1000900001C01D92A032B207E1F70E94C4030C9484
:1000A00016050C940000CF93DF93CDB7DEB78AE23C
:1000B00090E02AE230E0F90120812F67FC012083E3
:1000C00084E290E024E230E0F90120812F60FC011D
:1000D00020830000DF91CF910895CF93DF9300D06C
:1000E000CDB7DEB789836A8389818031C8F48BE21A
:1000F00090E02BE230E0F90120812078FC012083A0
:100100008BE290E02BE230E0F90140812981222F3F
:1001100030E020503F4FF9012081242BFC01208347
:1001200085E290E025E230E0F9012081207FFC01AA
:10013000208385E290E025E230E0F9012081622F02
:100140002A81422F50E021E030E002C0220F331F0D
:100150004A95E2F72F70262BFC01208300000F90B8
:100160000F90DF91CF910895CF93DF93CDB7DEB796
:1001700085E290E025E230E0F9012081207FFC015A
:1001800020830000DF91CF910895CF93DF93CDB707
:10019000DEB7EC970FB6F894DEBF0FBECDBF89AFC8
:1001A0006AAF4BAF2CAF0E94B40060E089AD0E94F3
:1001B0006D0080E090E0A0E0B0E489839A83AB8397
:1001C000BC8320E030E04AE755E469817A818B8185
:1001D0009C810E948104DC01CB018FA798ABA9AB65
:1001E000BAAB20E030E040E85FE36FA578A989A9C9
:1001F0009AA90E94FB0388232CF481E090E09CAB39
:100200008BAB3FC020E03FEF4FE757E46FA578A9E5
:1002100089A99AA90E947C0418164CF520E030E0C8
:1002200040E251E469817A818B819C810E94810442
:10023000DC01CB01BC01CD010E940004DC01CB013B
:100240009CAB8BAB0FC080E991E09EAB8DAB8DA9D1
:100250009EA90197F1F79EAB8DAB8BA99CA9019745
:100260009CAB8BAB8BA99CA9892B69F714C06FA59C
:1002700078A989A99AA90E940004DC01CB019CAB52
:100280008BAB8BA99CA998AF8FAB8FA998AD019729
:10029000F1F798AF8FAB0E94B40061E08AAD0E9485
:1002A0006D0080E090E0A0E0B0E48D839E83AF839A
:1002B000B88720E030E04AE755E46D817E818F8188
:1002C00098850E948104DC01CB018DA39EA3AFA37E
:1002D000B8A720E030E040E85FE36DA17EA18FA1E8
:1002E00098A50E94FB0388232CF481E090E09AA754
:1002F00089A73FC020E03FEF4FE757E46DA17EA103
:100300008FA198A50E947C0418164CF520E030E0DF
:1003100040E251E46D817E818F8198850E94810445
:10032000DC01CB01BC01CD010E940004DC01CB014A
:100330009AA789A70FC080E991E09CA78BA78BA5FE
:100340009CA50197F1F79CA78BA789A59AA5019772
:100350009AA789A789A59AA5892B69F714C06DA1C9
:100360007EA18FA198A50E940004DC01CB019AA771
:1003700089A789A59AA59EA78DA78DA59EA501975A
:10038000F1F79EA78DA70E94B40062E08BAD0E949A
:100390006D0080E090E0A0E0B0E489879A87AB87A9
:1003A000BC8720E030E04AE755E469857A858B8593
:1003B0009C850E948104DC01CB018B8F9C8FAD8FCB
:1003C000BE8F20E030E040E85FE36B8D7C8D8D8D4B
:1003D0009E8D0E94FB0388232CF481E090E098A37B
:1003E0008F8F3FC020E03FEF4FE757E46B8D7C8D50
:1003F0008D8D9E8D0E947C0418164CF520E030E017
:1004000040E251E469857A858B859C850E94810450
:10041000DC01CB01BC01CD010E940004DC01CB0159
:1004200098A38F8F0FC080E991E09AA389A389A137
:100430009AA10197F1F79AA389A38F8D98A10197AB
:1004400098A38F8F8F8D98A1892B69F714C06B8D1E
:100450007C8D8D8D9E8D0E940004DC01CB0198A3C4
:100460008F8F8F8D98A19CA38BA38BA19CA10197AB
:10047000F1F79CA38BA30E94B40063E08CAD0E94B3
:100480006D0080E090E0A0E0B0E48D879E87AF87AC
:10049000B88B20E030E04AE755E46D857E858F8596
:1004A00098890E948104DC01CB01898B9A8BAB8BEC
:1004B000BC8B20E030E040E85FE369897A898B8972
:1004C0009C890E94FB0388232CF481E090E09E8BA2
:1004D0008D8B3FC020E03FEF4FE757E469897A8971
:1004E0008B899C890E947C0418164CF520E030E032
:1004F00040E251E46D857E858F8598890E94810454
:10050000DC01CB01BC01CD010E940004DC01CB0168
:100510009E8B8D8B0FC080E991E0988F8F8B8F8998
:10052000988D0197F1F7988F8F8B8D899E89019710
:100530009E8B8D8B8D899E89892B69F714C0698963
:100540007A898B899C890E940004DC01CB019E8BF7
:100550008D8B8D899E899A8F898F898D9A8D019730
:10056000F1F79A8F898F0000EC960FB6F894DEBFF2
:100570000FBECDBFDF91CF910895CF93DF93CDB75D
:10058000DEB787E290E027E230E0F9012081207FAA
:10059000FC01208388E290E028E230E0F90120812C
:1005A0002F60FC01208388E690E028E630E0F90126
:1005B00020812260FC0120838CE690E02CE630E074
:1005C000F90120812F60FC01208378940000DF91E5
:1005D000CF910895CF93DF9300D000D01F92CDB775
:1005E000DEB789837B836A835D834C838981843012
:1005F000E0F48981882F90E0880F991F880F991F58
:10060000805F9E4F2A813B81FC0131832083898159
:10061000882F90E0880F991F880F991F8E5E9E4F3C
:100620002C813D81FC013183208300000F900F90CD
:100630000F900F900F90DF91CF9108951F920F921E
:1006400000905F000F9211242F933F934F935F937D
:100650006F937F938F939F93AF93BF93EF93FF938A
:10066000CF93DF931F92CDB7DEB719823DC086E2EC
:1006700090E0FC018081882F90E02981222F30E0DA
:1006800002C0959587952A95E2F781709927892B65
:1006900041F58981882F90E0880F991F880F991F55
:1006A000805F9E4FFC0180819181892BD1F08981EF
:1006B000882F90E0880F991F880F991F805F9E4FA9
:1006C000FC01208131818981882F90E0880F991F5A
:1006D000880F991F8E5E9E4FFC0180819181F901E8
:1006E000099589818F5F89838981843008F4BFCF20
:1006F00000000F90DF91CF91FF91EF91BF91AF91EB
:100700009F918F917F916F915F914F913F912F9129
:100710000F9000925F000F901F901895CF93DF937A
:1007200000D000D0CDB7DEB79C838B838B819C81BA
:100730009A83898389819A81FC01808121E0280F35
:1007400089819A81FC01208389819A81FC019081B1
:100750008DEC989F812D1124282F2695269526957E
:10076000822F880F282F220F220F820F292F281B5C
:1007700089819A81FC01208300000F900F900F90D7
:100780000F90DF91CF910895CF93DF9300D000D0E9
:10079000CDB7DEB719821A821B821C820E94BD026D
:1007A0000E945300CE010496AC016EE873E080E035
:1007B0000E94EA02CE010396AC016EE873E081E08C
:1007C0000E94EA02CE010296AC016EE873E082E07C
:1007D0000E94EA02CE010196AC016EE873E083E06C
:1007E0000E94EA0229813A819B818C81432F692FE3
:1007F0000E94C500F7CF0E942F0408F481E00895FD
:100800000E945B0488F09F5798F0B92F9927B75141
:10081000B0F0E1F0660F771F881F991F1AF0BA95A4
:10082000C9F714C0B13091F00E947504B1E0089589
:100830000C947504672F782F8827B85F39F0B93F7B
:10084000CCF3869577956795B395D9F73EF4909557
:100850008095709561957F4F8F4F9F4F0895990FA9
:100860000008550FAA0BE0E8FEEF16161706E8077A
:10087000F907C0F012161306E407F50798F0621B9B
:10088000730B840B950B39F40A2661F0232B242B70
:10089000252B21F408950A2609F4A140A6958FEF8F
:1008A000811D811D089557FD9058440F551F59F023
:1008B0005F3F71F04795880F97FB991F61F09F3F4D
:1008C00079F087950895121613061406551FF2CF76
:1008D0004695F1DF08C0161617061806991FF1CFC6
:1008E00086957105610508940895E894BB276627ED
:1008F0007727CB0197F908950E942F0408F48FEF12
:1009000008950E9494040C9405050E94F70438F0A1
:100910000E94FE0420F0952311F00C94EE040C9438
:10092000F40411240C9476040E94530470F3959FF0
:10093000C1F3950F50E0551F629FF001729FBB27D6
:10094000F00DB11D639FAA27F00DB11DAA1F649F72
:100950006627B00DA11D661F829F2227B00DA11D25
:10096000621F739FB00DA11D621F839FA00D611DAB
:10097000221F749F3327A00D611D231F849F600DCC
:10098000211D822F762F6A2F11249F5750409AF0F5
:10099000F1F088234AF0EE0FFF1FBB1F661F771F81
:1009A000881F91505040A9F79E3F510580F00C944C
:1009B000EE040C9476045F3FE4F3983ED4F38695FE
:1009C00077956795B795F795E7959F5FC1F7FE2BEC
:1009D000880F911D9695879597F9089597F99F67C8
:1009E00080E870E060E008959FEF80EC08950024B7
:1009F0000A941616170618060906089500240A9484
:100A000012161306140605060895092E0394000C09
:100A100011F4882352F0BB0F40F4BF2B11F460FF98
:100A200004C06F5F7F4F8F4F9F4F0895F894FFCFA3
:100A30007E306D79335B5F707F7B771F4E3D4F4714
:00000001FF
