S01700004763634170706C69636174696F6E312E737265635B
S11300000C9434000C9449000C9449000C9449005D
S11300100C9449000C9449000C9449000C94490038
S11300200C9449000C9449000C9449000C94490028
S11300300C9449000C9449000C9449000C94490018
S11300400C9449000C9449000C9449000C94490008
S11300500C9449000C9449000C9449000C944900F8
S11300600C9449000C94490011241FBECFEFD8E032
S1130070DEBFCDBF11E0A0E0B1E0EAE2F9E002C0EA
S113008005900D92A031B107D9F70E94B5020C94E6
S113009093040C940000CF93DF93CDB7DEB78AE2CC
S11300A090E02AE230E0F90120812F67FC012083EF
S11300B084E290E024E230E0F90120812F60FC0129
S11300C020830000DF91CF910895CF93DF9300D078
S11300D0CDB7DEB789836A8389818031C8F48BE226
S11300E090E02BE230E0F90120812078FC012083AC
S11300F08BE290E02BE230E0F90140812981222F4C
S113010030E020503F4FF9012081242BFC01208353
S113011085E290E025E230E0F9012081207FFC01B6
S1130120208385E290E025E230E0F9012081622F0E
S11301302A81422F50E021E030E002C0220F331F19
S11301404A95E2F72F70262BFC01208300000F90C4
S11301500F90DF91CF910895CF93DF93CDB7DEB7A2
S113016085E290E025E230E0F9012081207FFC0166
S113017020830000DF91CF910895CF93DF93CDB713
S1130180DEB7EC970FB6F894DEBF0FBECDBF89AFD4
S11301906AAF4BAF2CAF0E94AC0060E089AD0E9407
S11301A0650080E090E0A0E0B0E489839A83AB83AB
S11301B0BC8320E030E04AE755E469817A818B8191
S11301C09C810E94EF03DC01CB018FA798ABA9AB04
S11301D0BAAB20E030E040E85FE36FA578A989A9D5
S11301E09AA90E94690388232CF481E090E09CABD7
S11301F08BAB3FC020E03FEF4FE757E46FA578A9F2
S113020089A99AA90E94EA0318164CF520E030E067
S113021040E251E469817A818B819C810E94EF03E1
S1130220DC01CB01BC01CD010E946E03DC01CB01DA
S11302309CAB8BAB0FC080E991E09EAB8DAB8DA9DD
S11302409EA90197F1F79EAB8DAB8BA99CA9019751
S11302509CAB8BAB8BA99CA9892B69F714C06FA5A8
S113026078A989A99AA90E946E03DC01CB019CABF1
S11302708BAB8BA99CA998AF8FAB8FA998AD019735
S1130280F1F798AF8FAB0E94AC0061E08AAD0E9499
S1130290650080E090E0A0E0B0E48D839E83AF83AE
S11302A0B88720E030E04AE755E46D817E818F8194
S11302B098850E94EF03DC01CB018DA39EA3AFA31D
S11302C0B8A720E030E040E85FE36DA17EA18FA1F4
S11302D098A50E94690388232CF481E090E09AA7F2
S11302E089A73FC020E03FEF4FE757E46DA17EA10F
S11302F08FA198A50E94EA0318164CF520E030E07F
S113030040E251E46D817E818F8198850E94EF03E4
S1130310DC01CB01BC01CD010E946E03DC01CB01E9
S11303209AA789A70FC080E991E09CA78BA78BA50A
S11303309CA50197F1F79CA78BA789A59AA501977E
S11303409AA789A789A59AA5892B69F714C06DA1D5
S11303507EA18FA198A50E946E03DC01CB019AA710
S113036089A789A59AA59EA78DA78DA59EA5019766
S1130370F1F79EA78DA70E94AC0062E08BAD0E94AE
S1130380650080E090E0A0E0B0E489879A87AB87BD
S1130390BC8720E030E04AE755E469857A858B859F
S11303A09C850E94EF03DC01CB018B8F9C8FAD8F6A
S11303B0BE8F20E030E040E85FE36B8D7C8D8D8D57
S11303C09E8D0E94690388232CF481E090E098A319
S11303D08F8F3FC020E03FEF4FE757E46B8D7C8D5C
S11303E08D8D9E8D0E94EA0318164CF520E030E0B6
S11303F040E251E469857A858B859C850E94EF03F0
S1130400DC01CB01BC01CD010E946E03DC01CB01F8
S113041098A38F8F0FC080E991E09AA389A389A143
S11304209AA10197F1F79AA389A38F8D98A10197B7
S113043098A38F8F8F8D98A1892B69F714C06B8D2A
S11304407C8D8D8D9E8D0E946E03DC01CB0198A363
S11304508F8F8F8D98A19CA38BA38BA19CA10197B7
S1130460F1F79CA38BA30E94AC0063E08CAD0E94C7
S1130470650080E090E0A0E0B0E48D879E87AF87C0
S1130480B88B20E030E04AE755E46D857E858F85A2
S113049098890E94EF03DC01CB01898B9A8BAB8B8B
S11304A0BC8B20E030E040E85FE369897A898B897E
S11304B09C890E94690388232CF481E090E09E8B40
S11304C08D8B3FC020E03FEF4FE757E469897A897D
S11304D08B899C890E94EA0318164CF520E030E0D1
S11304E040E251E46D857E858F8598890E94EF03F3
S11304F0DC01CB01BC01CD010E946E03DC01CB0108
S11305009E8B8D8B0FC080E991E0988F8F8B8F89A4
S1130510988D0197F1F7988F8F8B8D899E8901971C
S11305209E8B8D8B8D899E89892B69F714C069896F
S11305307A898B899C890E946E03DC01CB019E8B96
S11305408D8B8D899E899A8F898F898D9A8D01973C
S1130550F1F79A8F898F0000EC960FB6F894DEBFFE
S11305600FBECDBFDF91CF9108951F93CF93DF933B
S113057000D000D0CDB7DEB71A8219821C821B824C
S11305800E944B008B819C81AC014D5F5F4F9A01AF
S1130590ADECBCEC0E94840496958795969587955E
S11305A096958795880F991F9C01220F331F220F60
S11305B0331F820F931F9A01281B390BC901182F6F
S11305C08B819C81AC014E5F5F4F9A01ADECBCEC1A
S11305D00E94840496958795969587959695879518
S11305E0880F991F9C01220F331F220F331F820F84
S11305F0931F9A01281B390BC901F82F8B819C8109
S1130600AC014F5F5F4F9A01ADECBCEC0E948404D7
S1130610969587959695879596958795880F991FB2
S11306209C01220F331F220F331F820F931F9A0145
S1130630281B390BC901E82F4B815C819A01ADEC71
S1130640BCEC0E948404969587959695879596951B
S11306508795880F991F9C01220F331F220F331F88
S1130660820F931F9A01281B390BC901212F4F2F89
S11306706E2F0E94BD0089819A8101969A83898395
S113068089819A8196958795969587959C01ABE784
S1130690B4E10E948404AC01569547959A01ADECEF
S11306A0BCEC0E94840496958795969587959695BB
S11306B08795880F991F9C01220F331F220F331F28
S11306C0820F931F9A01281B390BC9019C838B83CA
S11306D059CF0E949D0308F481E008950E94C90344
S11306E088F09F5798F0B92F9927B751B0F0E1F0EF
S11306F0660F771F881F991F1AF0BA95C9F714C09F
S1130700B13091F00E94E303B1E008950C94E30347
S1130710672F782F8827B85F39F0B93FCCF38695D7
S113072077956795B395D9F73EF490958095709534
S113073061957F4F8F4F9F4F0895990F0008550F74
S1130740AA0BE0E8FEEF16161706E807F907C0F053
S113075012161306E407F50798F0621B730B840B5B
S1130760950B39F40A2661F0232B242B252B21F435
S113077008950A2609F4A140A6958FEF811D811DD5
S1130780089557FD9058440F551F59F05F3F71F07D
S11307904795880F97FB991F61F09F3F79F08795E4
S11307A00895121613061406551FF2CF4695F1DF6D
S11307B008C0161617061806991FF1CF86957105FD
S11307C0610508940895E894BB2766277727CB0131
S11307D097F908950E949D0308F48FEF08950E94ED
S11307E002040C9473040E94650438F00E946C04A3
S11307F020F0952311F00C945C040C9462041124F1
S11308000C94E4030E94C10370F3959FC1F3950F08
S113081050E0551F629FF001729FBB27F00DB11D80
S1130820639FAA27F00DB11DAA1F649F6627B00D10
S1130830A11D661F829F2227B00DA11D621F739FF9
S1130840B00DA11D621F839FA00D611D221F749F07
S11308503327A00D611D231F849F600D211D822F4E
S1130860762F6A2F11249F5750409AF0F1F0882375
S11308704AF0EE0FFF1FBB1F661F771F881F9150A2
S11308805040A9F79E3F510580F00C945C040C94F1
S1130890E4035F3FE4F3983ED4F386957795679538
S11308A0B795F795E7959F5FC1F7FE2B880F911DCC
S11308B09695879597F9089597F99F6780E870E072
S11308C060E008959FEF80EC089500240A941616C2
S11308D0170618060906089500240A94121613062A
S11308E0140605060895092E0394000C11F48823B8
S11308F052F0BB0F40F4BF2B11F460FF04C06F5FD4
S11309007F4F8F4F9F4F0895A29FB001B39FC001A7
S1130910A39F700D811D1124911DB29F700D811D27
S10D09201124911D0895F894FFCFEF
S113092A7E306D79335B5F707F7B771F4E3D4F4717
S9030000FC
