:100000000C9434000C9451000C9451000C94510049
:100010000C94A1000C9451000C9451000C945100CC
:100020000C9451000C9451000C9451000C9451000C
:100030000C9451000C9451000C9451000C945100FC
:100040000C9451000C9451000C9451000C945100EC
:100050000C9451000C9451000C9451000C945100DC
:100060000C9451000C94510011241FBECFEFD8E026
:10007000DEBFCDBF11E0A0E0B1E0ECEEFBE002C0DE
:1000800005900D92A031B107D9F721E0A0E1B1E0D0
:1000900001C01D92A032B207E1F70E9436020C9413
:1000A000F4050C940000CF93DF93CDB7DEB78AE25E
:1000B00090E02AE230E0F90120812F67FC012083E3
:1000C00084E290E024E230E0F90120812F60FC011D
:1000D00020830000DF91CF910895CF93DF9300D06C
:1000E000CDB7DEB789836A838BE290E02BE230E004
:1000F000F9012081422F40782981222F30E02050C1
:100100003F4FF9012081242BFC01208385E290E000
:1001100025E230E0F9012081622F607F2A81422FA1
:1001200050E021E030E002C0220F331F4A95E2F791
:10013000262BFC01208300000F900F90DF91CF91C0
:1001400008951F920F9200905F000F9211242F9339
:100150003F934F935F936F937F938F939F93AF934F
:10016000BF93EF93FF93CF93DF931F92CDB7DEB78B
:1001700019823DC086E290E0FC018081882F90E0EA
:100180002981222F30E002C0959587952A95E2F7C4
:1001900081709927892B41F58981882F90E0880FFC
:1001A000991F880F991F805F9E4FFC01808191816C
:1001B000892BD1F08981882F90E0880F991F880FB3
:1001C000991F805F9E4FFC01208131818981882F9A
:1001D00090E0880F991F880F991F8E5E9E4FFC013B
:1001E00080819181F901099589818F5F8983898156
:1001F000843008F4BFCF00000F90DF91CF91FF91C2
:10020000EF91BF91AF919F918F917F916F915F918E
:100210004F913F912F910F9000925F000F901F9090
:100220001895CF93DF93CDB7DEB787E290E027E252
:1002300030E0F9012081207FFC01208388E290E0FA
:1002400028E230E0F90120812F60FC01208388E65C
:1002500090E028E630E0F90120812260FC01208353
:100260008CE690E02CE630E0F90120812F60FC0163
:1002700020830000DF91CF910895CF93DF9300D0CA
:1002800000D01F92CDB7DEB789837B836A835D83FD
:100290004C838981882F90E0880F991F880F991FC0
:1002A000805F9E4F2A813B81FC01318320838981BD
:1002B000882F90E0880F991F880F991F8E5E9E4FA0
:1002C0002C813D81FC013183208300000F900F9031
:1002D0000F900F900F90DF91CF910895CF93DF9300
:1002E000CDB7DEB785EC90E0FC01108284EC90E0A5
:1002F00027E6FC01208381EC90E028E0FC012083CC
:1003000082EC90E026E0FC0120830000DF91CF9199
:100310000895CF93DF931F92CDB7DEB78983000096
:1003200080EC90E0FC018081882F90E0807299271A
:10033000892BB1F386EC90E02981FC012083000039
:100340000F90DF91CF910895CF93DF9300D0CDB779
:10035000DEB79A8389830BC089819A819C012F5FC4
:100360003F4F3A832983FC0180810E948901898162
:100370009A81FC018081882379F78AE00E948901B3
:1003800000000F900F90DF91CF910895CF93DF93EE
:10039000CDB7DEB78CE790E025E4FC0120838AE747
:1003A00090E027E8FC0120830000DF91CF910895C1
:1003B000CF93DF9300D000D0CDB7DEB78AE790E0CF
:1003C0002AE730E0F90120812064FC01208300004D
:1003D0008AE790E0FC018081882F90E08074992763
:1003E000892BB1F788E790E0FC018081882F90E0AD
:1003F0009A83898389E790E0FC018081882F90E0CF
:100400009C838B838B819C81382F222789819A81C1
:10041000822B932B0F900F900F900F90DF91CF9125
:100420000895CF93DF9300D000D0CDB7DEB79C8383
:100430008B838B819C819A83898389819A81FC013A
:100440008081882F90E001962AE030E0B9010E9477
:100450008C05282F89819A81FC01208300000F9050
:100460000F900F900F90DF91CF910895CF93DF936E
:10047000CDB7DEB7C654D1090FB6F894DEBF0FBEB4
:10048000CDBF1DAE1EAE1FAECE01805C9F4FFC01E6
:1004900010820E9453000E9411010E946E010E946E
:1004A000C6017894CE01805C9F4FAC0161E172E09F
:1004B00080E00E943D01CE01CF96AC0161E172E087
:1004C00081E00E943D01CE01CE96AC0161E172E077
:1004D00082E00E943D01CE01CD96AC0161E172E067
:1004E00083E00E943D011A8219828DAD63E00E9473
:1004F0006D0080E090E0A0E0B0E48B839C83AD834E
:10050000BE8320E030E04AE755E46B817C818D8139
:100510009E810E94F704DC01CB018BAB9CABADABA1
:10052000BEAB20E030E040E85FE36BA97CA98DA979
:100530009EA90E94710488232CF481E090E098AF7A
:100540008FAB3FC020E03FEF4FE757E46BA97CA99A
:100550008DA99EA90E94F20418164CF520E030E007
:1005600040E251E46B817C818D819E810E94F70481
:10057000DC01CB01BC01CD010E947604DC01CB0182
:1005800098AF8FAB0FC080E991E09AAF89AF89AD8A
:100590009AAD0197F1F79AAF89AF8FA998AD0197FE
:1005A00098AF8FAB8FA998AD892B69F714C06BA951
:1005B0007CA98DA99EA90E947604DC01CB0198AF8D
:1005C0008FAB8FA998AD9CAF8BAF8BAD9CAD0197D6
:1005D000F1F79CAF8BAF8EAD62E00E946D0080E0C2
:1005E00090E0A0E0B0E48F839887A987BA8720E0E5
:1005F00030E04AE755E46F81788589859A850E94C5
:10060000F704DC01CB0189A79AA7ABA7BCA720E020
:1006100030E040E85FE369A57AA58BA59CA50E9420
:10062000710488232CF481E090E09EA78DA73FC041
:1006300020E03FEF4FE757E469A57AA58BA59CA57D
:100640000E94F20418164CF520E030E040E251E43C
:100650006F81788589859A850E94F704DC01CB013A
:10066000BC01CD010E947604DC01CB019EA78DA7C1
:100670000FC080E991E098AB8FA78FA598A901974B
:10068000F1F798AB8FA78DA59EA501979EA78DA783
:100690008DA59EA5892B69F714C069A57AA58BA5A0
:1006A0009CA50E947604DC01CB019EA78DA78DA599
:1006B0009EA59AAB89AB89A99AA90197F1F79AAB44
:1006C00089AB8FAD61E00E946D0080E090E0A0E01A
:1006D000B0E48B879C87AD87BE8720E030E04AE797
:1006E00055E46B857C858D859E850E94F704DC0131
:1006F000CB018F8F98A3A9A3BAA320E030E040E8F4
:100700005FE36F8D78A189A19AA10E94710488236B
:100710002CF481E090E09CA38BA33FC020E03FEF4E
:100720004FE757E46F8D78A189A19AA10E94F20446
:1007300018164CF520E030E040E251E46B857C85F2
:100740008D859E850E94F704DC01CB01BC01CD01A3
:100750000E947604DC01CB019CA38BA30FC080E92F
:1007600091E09EA38DA38DA19EA10197F1F79EA379
:100770008DA38BA19CA101979CA38BA38BA19CA172
:10078000892B69F714C06F8D78A189A19AA10E9465
:100790007604DC01CB019CA38BA38BA19CA198A721
:1007A0008FA38FA198A50197F1F798A78FA3CE01EA
:1007B000805C9F4FFC01808160E00E946D0080E0C2
:1007C00090E0A0E0B0E4898B9A8BAB8BBC8B20E0EF
:1007D00030E04AE755E469897A898B899C890E94CF
:1007E000F704DC01CB018D8B9E8BAF8BB88F20E0A3
:1007F00030E040E85FE36D897E898F89988D0E94A3
:10080000710488232CF481E090E09A8F898F3FC097
:1008100020E03FEF4FE757E46D897E898F89988DFF
:100820000E94F20418164CF520E030E040E251E45A
:1008300069897A898B899C890E94F704DC01CB0144
:10084000BC01CD010E947604DC01CB019A8F898F17
:100850000FC080E991E09C8F8B8F8B8D9C8D0197D1
:10086000F1F79C8F8B8F898D9A8D01979A8F898F45
:10087000898D9A8D892B69F714C06D897E898F893E
:10088000988D0E947604DC01CB019A8F898F898D27
:100890009A8D9E8F8D8F8D8D9E8D0197F1F79E8FF6
:1008A0008D8F89819A8101969A83898389819A8122
:1008B000C29708F41ACE1A8219820E94D801988B26
:1008C0008F878F8598899E012F5B3F4F4AE050E0CC
:1008D000B9010E94B405CE018F5B9F4F0E94A40115
:1008E00004CE0E94A50408F481E008950E94D1047A
:1008F00088F09F5798F0B92F9927B751B0F0E1F0E1
:10090000660F771F881F991F1AF0BA95C9F714C090
:10091000B13091F00E94EB04B1E008950C94EB0427
:10092000672F782F8827B85F39F0B93FCCF38695C9
:1009300077956795B395D9F73EF490958095709526
:1009400061957F4F8F4F9F4F0895990F0008550F66
:10095000AA0BE0E8FEEF16161706E807F907C0F045
:1009600012161306E407F50798F0621B730B840B4D
:10097000950B39F40A2661F0232B242B252B21F427
:1009800008950A2609F4A140A6958FEF811D811DC7
:10099000089557FD9058440F551F59F05F3F71F06F
:1009A0004795880F97FB991F61F09F3F79F08795D6
:1009B0000895121613061406551FF2CF4695F1DF5F
:1009C00008C0161617061806991FF1CF86957105EF
:1009D000610508940895E894BB2766277727CB0123
:1009E00097F908950E94A50408F48FEF08950E94D6
:1009F0000A050C947B050E946D0538F00E94740571
:100A000020F0952311F00C9464050C946A051124D0
:100A10000C94EC040E94C90470F3959FC1F3950FE8
:100A200050E0551F629FF001729FBB27F00DB11D72
:100A3000639FAA27F00DB11DAA1F649F6627B00D02
:100A4000A11D661F829F2227B00DA11D621F739FEB
:100A5000B00DA11D621F839FA00D611D221F749FF9
:100A60003327A00D611D231F849F600D211D822F40
:100A7000762F6A2F11249F5750409AF0F1F0882367
:100A80004AF0EE0FFF1FBB1F661F771F881F915094
:100A90005040A9F79E3F510580F00C9464050C94DA
:100AA000EC045F3FE4F3983ED4F386957795679521
:100AB000B795F795E7959F5FC1F7FE2B880F911DBE
:100AC0009695879597F9089597F99F6780E870E064
:100AD00060E008959FEF80EC089500240A941616B4
:100AE000170618060906089500240A94121613061C
:100AF000140605060895092E0394000C11F48823AA
:100B000052F0BB0F40F4BF2B11F460FF04C06F5FC5
:100B10007F4F8F4F9F4F089597FB072E16F4009439
:100B200007D077FD09D00E94A00507FC05D03EF450
:100B3000909581959F4F0895709561957F4F089589
:100B4000AA1BBB1B51E107C0AA1FBB1FA617B707F3
:100B500010F0A61BB70B881F991F5A95A9F780950F
:100B60009095BC01CD0108954532510520F44230E5
:100B700010F00C94BF05FB011082CB010895BB2738
:100B80004A3031F4992322F4BDE2909581959F4F2C
:100B90000C94CB05BB27FB015527AA27880F991F6B
:100BA000AA1FA41710F0A41B83955051B9F7A05D9C
:100BB000AA3308F0A95DA193009779F7B111B19319
:100BC0001192CB010C94E405DC01FC01672F7191BB
:100BD0007723E1F7329704C07C916D937083629123
:0C0BE000AE17BF07C8F30895F894FFCFCC
:100BEC007E306D79335B5F707F7B771F4E3D4F4757
:00000001FF
